{
  "_format": "hh-sol-artifact-1",
  "contractName": "CropMarketplace",
  "sourceName": "contracts/CropMarketplace.sol",
  "abi": [
    {
      "inputs": [],
      "stateMutability": "nonpayable",
      "type": "constructor"
    },
    {
      "anonymous": false,
      "inputs": [
        {
          "indexed": false,
          "internalType": "uint256",
          "name": "cropId",
          "type": "uint256"
        },
        {
          "indexed": false,
          "internalType": "address",
          "name": "agent",
          "type": "address"
        }
      ],
      "name": "AgentAdded",
      "type": "event"
    },
    {
      "anonymous": false,
      "inputs": [
        {
          "indexed": false,
          "internalType": "uint256",
          "name": "cropId",
          "type": "uint256"
        },
        {
          "indexed": false,
          "internalType": "address",
          "name": "winner",
          "type": "address"
        },
        {
          "indexed": false,
          "internalType": "uint256",
          "name": "amount",
          "type": "uint256"
        }
      ],
      "name": "AuctionEnded",
      "type": "event"
    },
    {
      "anonymous": false,
      "inputs": [
        {
          "indexed": false,
          "internalType": "uint256",
          "name": "cropId",
          "type": "uint256"
        },
        {
          "indexed": false,
          "internalType": "uint256",
          "name": "auctionEndTime",
          "type": "uint256"
        }
      ],
      "name": "AuctionStarted",
      "type": "event"
    },
    {
      "anonymous": false,
      "inputs": [
        {
          "indexed": false,
          "internalType": "uint256",
          "name": "cropId",
          "type": "uint256"
        },
        {
          "indexed": false,
          "internalType": "string",
          "name": "name",
          "type": "string"
        },
        {
          "indexed": false,
          "internalType": "uint256",
          "name": "quantity",
          "type": "uint256"
        },
        {
          "indexed": false,
          "internalType": "address",
          "name": "seller",
          "type": "address"
        },
        {
          "indexed": false,
          "internalType": "string",
          "name": "image",
          "type": "string"
        },
        {
          "indexed": false,
          "internalType": "string",
          "name": "harvestDate",
          "type": "string"
        },
        {
          "indexed": false,
          "internalType": "bool",
          "name": "isAuction",
          "type": "bool"
        }
      ],
      "name": "CropListed",
      "type": "event"
    },
    {
      "anonymous": false,
      "inputs": [
        {
          "indexed": false,
          "internalType": "uint256",
          "name": "cropId",
          "type": "uint256"
        },
        {
          "indexed": false,
          "internalType": "address",
          "name": "buyer",
          "type": "address"
        }
      ],
      "name": "CropPurchased",
      "type": "event"
    },
    {
      "anonymous": false,
      "inputs": [
        {
          "indexed": false,
          "internalType": "uint256",
          "name": "cropId",
          "type": "uint256"
        },
        {
          "indexed": false,
          "internalType": "address",
          "name": "agent",
          "type": "address"
        }
      ],
      "name": "CropVerified",
      "type": "event"
    },
    {
      "anonymous": false,
      "inputs": [
        {
          "indexed": false,
          "internalType": "uint256",
          "name": "cropId",
          "type": "uint256"
        },
        {
          "indexed": false,
          "internalType": "address",
          "name": "bidder",
          "type": "address"
        },
        {
          "indexed": false,
          "internalType": "uint256",
          "name": "amount",
          "type": "uint256"
        }
      ],
      "name": "NewHighestBid",
      "type": "event"
    },
    {
      "inputs": [
        {
          "internalType": "address",
          "name": "_agent",
          "type": "address"
        },
        {
          "internalType": "uint256",
          "name": "_cropId",
          "type": "uint256"
        }
      ],
      "name": "addLocalAgent",
      "outputs": [],
      "stateMutability": "nonpayable",
      "type": "function"
    },
    {
      "inputs": [
        {
          "internalType": "string",
          "name": "_quality",
          "type": "string"
        },
        {
          "internalType": "uint256",
          "name": "_price",
          "type": "uint256"
        },
        {
          "internalType": "uint256",
          "name": "_cropId",
          "type": "uint256"
        }
      ],
      "name": "addQuality",
      "outputs": [],
      "stateMutability": "nonpayable",
      "type": "function"
    },
    {
      "inputs": [],
      "name": "admin",
      "outputs": [
        {
          "internalType": "address",
          "name": "",
          "type": "address"
        }
      ],
      "stateMutability": "view",
      "type": "function"
    },
    {
      "inputs": [
        {
          "internalType": "address",
          "name": "",
          "type": "address"
        },
        {
          "internalType": "uint256",
          "name": "",
          "type": "uint256"
        }
      ],
      "name": "agentCrops",
      "outputs": [
        {
          "internalType": "uint256",
          "name": "",
          "type": "uint256"
        }
      ],
      "stateMutability": "view",
      "type": "function"
    },
    {
      "inputs": [
        {
          "internalType": "uint256",
          "name": "",
          "type": "uint256"
        }
      ],
      "name": "auctions",
      "outputs": [
        {
          "internalType": "uint256",
          "name": "cropId",
          "type": "uint256"
        },
        {
          "internalType": "uint256",
          "name": "highestBid",
          "type": "uint256"
        },
        {
          "internalType": "address",
          "name": "highestBidder",
          "type": "address"
        },
        {
          "internalType": "uint256",
          "name": "auctionEndTime",
          "type": "uint256"
        },
        {
          "internalType": "bool",
          "name": "auctionEnded",
          "type": "bool"
        },
        {
          "internalType": "bool",
          "name": "isAuction",
          "type": "bool"
        }
      ],
      "stateMutability": "view",
      "type": "function"
    },
    {
      "inputs": [
        {
          "internalType": "uint256",
          "name": "_cropId",
          "type": "uint256"
        }
      ],
      "name": "bid",
      "outputs": [],
      "stateMutability": "payable",
      "type": "function"
    },
    {
      "inputs": [],
      "name": "cropCount",
      "outputs": [
        {
          "internalType": "uint256",
          "name": "",
          "type": "uint256"
        }
      ],
      "stateMutability": "view",
      "type": "function"
    },
    {
      "inputs": [
        {
          "internalType": "uint256",
          "name": "",
          "type": "uint256"
        }
      ],
      "name": "crops",
      "outputs": [
        {
          "internalType": "string",
          "name": "name",
          "type": "string"
        },
        {
          "internalType": "string",
          "name": "image",
          "type": "string"
        },
        {
          "internalType": "string",
          "name": "quality",
          "type": "string"
        },
        {
          "internalType": "string",
          "name": "harvestDate",
          "type": "string"
        },
        {
          "internalType": "uint256",
          "name": "quantity",
          "type": "uint256"
        },
        {
          "internalType": "uint256",
          "name": "price",
          "type": "uint256"
        },
        {
          "internalType": "address payable",
          "name": "seller",
          "type": "address"
        },
        {
          "internalType": "bool",
          "name": "isVerified",
          "type": "bool"
        },
        {
          "internalType": "bool",
          "name": "isSold",
          "type": "bool"
        },
        {
          "internalType": "address",
          "name": "buyer",
          "type": "address"
        },
        {
          "internalType": "address",
          "name": "assignedAgent",
          "type": "address"
        }
      ],
      "stateMutability": "view",
      "type": "function"
    },
    {
      "inputs": [
        {
          "internalType": "uint256",
          "name": "_cropId",
          "type": "uint256"
        }
      ],
      "name": "finalizeAuction",
      "outputs": [],
      "stateMutability": "nonpayable",
      "type": "function"
    },
    {
      "inputs": [
        {
          "internalType": "uint256",
          "name": "_cropId",
          "type": "uint256"
        }
      ],
      "name": "getBiddersForCrop",
      "outputs": [
        {
          "internalType": "address[]",
          "name": "",
          "type": "address[]"
        },
        {
          "internalType": "uint256[]",
          "name": "",
          "type": "uint256[]"
        }
      ],
      "stateMutability": "view",
      "type": "function"
    },
    {
      "inputs": [
        {
          "internalType": "uint256",
          "name": "_cropId",
          "type": "uint256"
        }
      ],
      "name": "getCropDetails",
      "outputs": [
        {
          "internalType": "uint256",
          "name": "cropId",
          "type": "uint256"
        },
        {
          "internalType": "string",
          "name": "name",
          "type": "string"
        },
        {
          "internalType": "string",
          "name": "image",
          "type": "string"
        },
        {
          "internalType": "string",
          "name": "quality",
          "type": "string"
        },
        {
          "internalType": "string",
          "name": "harvestDate",
          "type": "string"
        },
        {
          "internalType": "uint256",
          "name": "quantity",
          "type": "uint256"
        },
        {
          "internalType": "uint256",
          "name": "price",
          "type": "uint256"
        },
        {
          "internalType": "address",
          "name": "seller",
          "type": "address"
        },
        {
          "internalType": "bool",
          "name": "isVerified",
          "type": "bool"
        },
        {
          "internalType": "bool",
          "name": "isSold",
          "type": "bool"
        },
        {
          "internalType": "address",
          "name": "buyer",
          "type": "address"
        },
        {
          "internalType": "address",
          "name": "assignedAgent",
          "type": "address"
        }
      ],
      "stateMutability": "view",
      "type": "function"
    },
    {
      "inputs": [
        {
          "internalType": "address",
          "name": "_agent",
          "type": "address"
        }
      ],
      "name": "getCropsByAgent",
      "outputs": [
        {
          "components": [
            {
              "internalType": "uint256",
              "name": "id",
              "type": "uint256"
            },
            {
              "components": [
                {
                  "internalType": "string",
                  "name": "name",
                  "type": "string"
                },
                {
                  "internalType": "string",
                  "name": "image",
                  "type": "string"
                },
                {
                  "internalType": "string",
                  "name": "quality",
                  "type": "string"
                },
                {
                  "internalType": "string",
                  "name": "harvestDate",
                  "type": "string"
                },
                {
                  "internalType": "uint256",
                  "name": "quantity",
                  "type": "uint256"
                },
                {
                  "internalType": "uint256",
                  "name": "price",
                  "type": "uint256"
                },
                {
                  "internalType": "address payable",
                  "name": "seller",
                  "type": "address"
                },
                {
                  "internalType": "bool",
                  "name": "isVerified",
                  "type": "bool"
                },
                {
                  "internalType": "bool",
                  "name": "isSold",
                  "type": "bool"
                },
                {
                  "internalType": "address",
                  "name": "buyer",
                  "type": "address"
                },
                {
                  "internalType": "address",
                  "name": "assignedAgent",
                  "type": "address"
                }
              ],
              "internalType": "struct CropMarketplace.Crop",
              "name": "crop",
              "type": "tuple"
            }
          ],
          "internalType": "struct CropMarketplace.CropWithID[]",
          "name": "",
          "type": "tuple[]"
        }
      ],
      "stateMutability": "view",
      "type": "function"
    },
    {
      "inputs": [],
      "name": "getCropsForAuction",
      "outputs": [
        {
          "components": [
            {
              "internalType": "uint256",
              "name": "id",
              "type": "uint256"
            },
            {
              "components": [
                {
                  "internalType": "string",
                  "name": "name",
                  "type": "string"
                },
                {
                  "internalType": "string",
                  "name": "image",
                  "type": "string"
                },
                {
                  "internalType": "string",
                  "name": "quality",
                  "type": "string"
                },
                {
                  "internalType": "string",
                  "name": "harvestDate",
                  "type": "string"
                },
                {
                  "internalType": "uint256",
                  "name": "quantity",
                  "type": "uint256"
                },
                {
                  "internalType": "uint256",
                  "name": "price",
                  "type": "uint256"
                },
                {
                  "internalType": "address payable",
                  "name": "seller",
                  "type": "address"
                },
                {
                  "internalType": "bool",
                  "name": "isVerified",
                  "type": "bool"
                },
                {
                  "internalType": "bool",
                  "name": "isSold",
                  "type": "bool"
                },
                {
                  "internalType": "address",
                  "name": "buyer",
                  "type": "address"
                },
                {
                  "internalType": "address",
                  "name": "assignedAgent",
                  "type": "address"
                }
              ],
              "internalType": "struct CropMarketplace.Crop",
              "name": "crop",
              "type": "tuple"
            }
          ],
          "internalType": "struct CropMarketplace.CropWithID[]",
          "name": "",
          "type": "tuple[]"
        }
      ],
      "stateMutability": "view",
      "type": "function"
    },
    {
      "inputs": [],
      "name": "getCropsForSale",
      "outputs": [
        {
          "components": [
            {
              "internalType": "uint256",
              "name": "id",
              "type": "uint256"
            },
            {
              "components": [
                {
                  "internalType": "string",
                  "name": "name",
                  "type": "string"
                },
                {
                  "internalType": "string",
                  "name": "image",
                  "type": "string"
                },
                {
                  "internalType": "string",
                  "name": "quality",
                  "type": "string"
                },
                {
                  "internalType": "string",
                  "name": "harvestDate",
                  "type": "string"
                },
                {
                  "internalType": "uint256",
                  "name": "quantity",
                  "type": "uint256"
                },
                {
                  "internalType": "uint256",
                  "name": "price",
                  "type": "uint256"
                },
                {
                  "internalType": "address payable",
                  "name": "seller",
                  "type": "address"
                },
                {
                  "internalType": "bool",
                  "name": "isVerified",
                  "type": "bool"
                },
                {
                  "internalType": "bool",
                  "name": "isSold",
                  "type": "bool"
                },
                {
                  "internalType": "address",
                  "name": "buyer",
                  "type": "address"
                },
                {
                  "internalType": "address",
                  "name": "assignedAgent",
                  "type": "address"
                }
              ],
              "internalType": "struct CropMarketplace.Crop",
              "name": "crop",
              "type": "tuple"
            }
          ],
          "internalType": "struct CropMarketplace.CropWithID[]",
          "name": "",
          "type": "tuple[]"
        }
      ],
      "stateMutability": "view",
      "type": "function"
    },
    {
      "inputs": [
        {
          "internalType": "uint256",
          "name": "_cropId",
          "type": "uint256"
        }
      ],
      "name": "getHighestBid",
      "outputs": [
        {
          "internalType": "uint256",
          "name": "",
          "type": "uint256"
        }
      ],
      "stateMutability": "view",
      "type": "function"
    },
    {
      "inputs": [
        {
          "internalType": "string",
          "name": "_name",
          "type": "string"
        },
        {
          "internalType": "string",
          "name": "_image",
          "type": "string"
        },
        {
          "internalType": "string",
          "name": "_harvestDate",
          "type": "string"
        },
        {
          "internalType": "uint256",
          "name": "_quantity",
          "type": "uint256"
        }
      ],
      "name": "listCrop",
      "outputs": [],
      "stateMutability": "nonpayable",
      "type": "function"
    },
    {
      "inputs": [
        {
          "internalType": "address",
          "name": "",
          "type": "address"
        }
      ],
      "name": "localAgents",
      "outputs": [
        {
          "internalType": "bool",
          "name": "",
          "type": "bool"
        }
      ],
      "stateMutability": "view",
      "type": "function"
    },
    {
      "inputs": [
        {
          "internalType": "uint256",
          "name": "_cropId",
          "type": "uint256"
        }
      ],
      "name": "purchaseCrop",
      "outputs": [],
      "stateMutability": "payable",
      "type": "function"
    },
    {
      "inputs": [
        {
          "internalType": "address",
          "name": "_agent",
          "type": "address"
        }
      ],
      "name": "removeLocalAgent",
      "outputs": [],
      "stateMutability": "nonpayable",
      "type": "function"
    },
    {
      "inputs": [
        {
          "internalType": "uint256",
          "name": "_cropId",
          "type": "uint256"
        }
      ],
      "name": "startAuction",
      "outputs": [],
      "stateMutability": "nonpayable",
      "type": "function"
    },
    {
      "inputs": [
        {
          "internalType": "uint256",
          "name": "_cropId",
          "type": "uint256"
        }
      ],
      "name": "verifyCrop",
      "outputs": [],
      "stateMutability": "nonpayable",
      "type": "function"
    }
  ],
  "bytecode": "0x608060405234801561001057600080fd5b5033600360006101000a81548173ffffffffffffffffffffffffffffffffffffffff021916908373ffffffffffffffffffffffffffffffffffffffff160217905550614c26806100616000396000f3fe60806040526004361061012a5760003560e01c806370c9f1a5116100ab578063de5d33501161006f578063de5d335014610425578063dfd55a2c1461044e578063e808386314610479578063f851a440146104a2578063f9395b46146104cd578063fe22a8f41461050a5761012a565b806370c9f1a51461030f5780638461f1cf146103565780638f28864414610381578063a065f838146103be578063b920cf88146103e75761012a565b806336854df1116100f257806336854df1146102225780633b570bbc1461025f578063454a2ab3146102885780634b00ff5f146102a4578063571a26a0146102cd5761012a565b8063065de74c1461012f578063182a2edf1461015857806320b6bac1146101955780632a748097146101dd5780632d09b9f9146101f9575b600080fd5b34801561013b57600080fd5b5061015660048036038101906101519190613503565b610535565b005b34801561016457600080fd5b5061017f600480360381019061017a919061358e565b61062f565b60405161018c91906135dd565b60405180910390f35b3480156101a157600080fd5b506101bc60048036038101906101b79190613503565b610660565b6040516101d49c9b9a999897969594939291906136b2565b60405180910390f35b6101f760048036038101906101f29190613503565b61098e565b005b34801561020557600080fd5b50610220600480360381019061021b9190613503565b610be6565b005b34801561022e57600080fd5b5061024960048036038101906102449190613788565b610ead565b60405161025691906137b5565b60405180910390f35b34801561026b57600080fd5b5061028660048036038101906102819190613905565b610ecd565b005b6102a2600480360381019061029d9190613503565b611172565b005b3480156102b057600080fd5b506102cb60048036038101906102c691906139c0565b61141a565b005b3480156102d957600080fd5b506102f460048036038101906102ef9190613503565b611571565b60405161030696959493929190613a2f565b60405180910390f35b34801561031b57600080fd5b5061033660048036038101906103319190613503565b6115e7565b60405161034d9b9a99989796959493929190613ab1565b60405180910390f35b34801561036257600080fd5b5061036b6118db565b6040516103789190613e01565b60405180910390f35b34801561038d57600080fd5b506103a860048036038101906103a39190613503565b611e8a565b6040516103b591906135dd565b60405180910390f35b3480156103ca57600080fd5b506103e560048036038101906103e09190613788565b611f00565b005b3480156103f357600080fd5b5061040e60048036038101906104099190613503565b611feb565b60405161041c929190613f81565b60405180910390f35b34801561043157600080fd5b5061044c6004803603810190610447919061358e565b612233565b005b34801561045a57600080fd5b506104636124b2565b60405161047091906135dd565b60405180910390f35b34801561048557600080fd5b506104a0600480360381019061049b9190613503565b6124b8565b005b3480156104ae57600080fd5b506104b76128a1565b6040516104c49190613fb8565b60405180910390f35b3480156104d957600080fd5b506104f460048036038101906104ef9190613788565b6128c7565b6040516105019190613e01565b60405180910390f35b34801561051657600080fd5b5061051f612e48565b60405161052c9190613e01565b60405180910390f35b60008082815260200190815260200160002060060160159054906101000a900460ff1615610598576040517f08c379a000000000000000000000000000000000000000000000000000000000815260040161058f9061401f565b60405180910390fd5b60006078426105a7919061406e565b9050806001600084815260200190815260200160002060030181905550600180600084815260200190815260200160002060040160016101000a81548160ff0219169083151502179055507ff8910119ddbef5440c54532457dfe8250a10ed39e583292818f44724b9e1344c82826040516106239291906140a2565b60405180910390a15050565b6005602052816000526040600020818154811061064b57600080fd5b90600052602060002001600091509150505481565b60006060806060806000806000806000806000806000808f815260200190815260200160002090508d81600001826001018360020184600301856004015486600501548760060160009054906101000a900473ffffffffffffffffffffffffffffffffffffffff168860060160149054906101000a900460ff168960060160159054906101000a900460ff168a60070160009054906101000a900473ffffffffffffffffffffffffffffffffffffffff168b60080160009054906101000a900473ffffffffffffffffffffffffffffffffffffffff168a8054610742906140fa565b80601f016020809104026020016040519081016040528092919081815260200182805461076e906140fa565b80156107bb5780601f10610790576101008083540402835291602001916107bb565b820191906000526020600020905b81548152906001019060200180831161079e57829003601f168201915b50505050509a508980546107ce906140fa565b80601f01602080910402602001604051908101604052809291908181526020018280546107fa906140fa565b80156108475780601f1061081c57610100808354040283529160200191610847565b820191906000526020600020905b81548152906001019060200180831161082a57829003601f168201915b5050505050995088805461085a906140fa565b80601f0160208091040260200160405190810160405280929190818152602001828054610886906140fa565b80156108d35780601f106108a8576101008083540402835291602001916108d3565b820191906000526020600020905b8154815290600101906020018083116108b657829003601f168201915b505050505098508780546108e6906140fa565b80601f0160208091040260200160405190810160405280929190818152602001828054610912906140fa565b801561095f5780601f106109345761010080835404028352916020019161095f565b820191906000526020600020905b81548152906001019060200180831161094257829003601f168201915b505050505097509c509c509c509c509c509c509c509c509c509c509c509c505091939597999b5091939597999b565b600080600083815260200190815260200160002090506000821180156109b657506002548211155b6109f5576040517f08c379a00000000000000000000000000000000000000000000000000000000081526004016109ec90614177565b60405180910390fd5b8060060160149054906101000a900460ff16610a46576040517f08c379a0000000000000000000000000000000000000000000000000000000008152600401610a3d906141e3565b60405180910390fd5b8060060160159054906101000a900460ff1615610a98576040517f08c379a0000000000000000000000000000000000000000000000000000000008152600401610a8f9061424f565b60405180910390fd5b80600501543414610ade576040517f08c379a0000000000000000000000000000000000000000000000000000000008152600401610ad5906142bb565b60405180910390fd5b8060060160009054906101000a900473ffffffffffffffffffffffffffffffffffffffff1673ffffffffffffffffffffffffffffffffffffffff166108fc349081150290604051600060405180830381858888f19350505050158015610b48573d6000803e3d6000fd5b5060018160060160156101000a81548160ff021916908315150217905550338160070160006101000a81548173ffffffffffffffffffffffffffffffffffffffff021916908373ffffffffffffffffffffffffffffffffffffffff1602179055507f59e6aaf0dc551daadba0583d462c79851b19c4a50341025976c9228fac2a75318233604051610bda9291906142db565b60405180910390a15050565b600460003373ffffffffffffffffffffffffffffffffffffffff1673ffffffffffffffffffffffffffffffffffffffff16815260200190815260200160002060009054906101000a900460ff16610c72576040517f08c379a0000000000000000000000000000000000000000000000000000000008152600401610c6990614350565b60405180910390fd5b600081118015610c8457506002548111155b610cc3576040517f08c379a0000000000000000000000000000000000000000000000000000000008152600401610cba90614177565b60405180910390fd5b60008082815260200190815260200160002060060160149054906101000a900460ff1615610d26576040517f08c379a0000000000000000000000000000000000000000000000000000000008152600401610d1d906143bc565b60405180910390fd5b60008082815260200190815260200160002060060160159054906101000a900460ff1615610d89576040517f08c379a0000000000000000000000000000000000000000000000000000000008152600401610d809061424f565b60405180910390fd5b600160008083815260200190815260200160002060060160146101000a81548160ff0219169083151502179055503360008083815260200190815260200160002060080160006101000a81548173ffffffffffffffffffffffffffffffffffffffff021916908373ffffffffffffffffffffffffffffffffffffffff160217905550600560003373ffffffffffffffffffffffffffffffffffffffff1673ffffffffffffffffffffffffffffffffffffffff1681526020019081526020016000208190806001815401808255809150506001900390600052602060002001600090919091909150557ff3847a745dbb2721f95007ff4847bd8f82174652c213778b4abc37fb169812a98133604051610ea29291906142db565b60405180910390a150565b60046020528060005260406000206000915054906101000a900460ff1681565b60026000815480929190610ee0906143dc565b9190505550604051806101600160405280858152602001848152602001604051806020016040528060008152508152602001838152602001828152602001600081526020013373ffffffffffffffffffffffffffffffffffffffff168152602001600015158152602001600015158152602001600073ffffffffffffffffffffffffffffffffffffffff168152602001600073ffffffffffffffffffffffffffffffffffffffff1681525060008060025481526020019081526020016000206000820151816000019081610fb491906145d0565b506020820151816001019081610fca91906145d0565b506040820151816002019081610fe091906145d0565b506060820151816003019081610ff691906145d0565b506080820151816004015560a0820151816005015560c08201518160060160006101000a81548173ffffffffffffffffffffffffffffffffffffffff021916908373ffffffffffffffffffffffffffffffffffffffff16021790555060e08201518160060160146101000a81548160ff0219169083151502179055506101008201518160060160156101000a81548160ff0219169083151502179055506101208201518160070160006101000a81548173ffffffffffffffffffffffffffffffffffffffff021916908373ffffffffffffffffffffffffffffffffffffffff1602179055506101408201518160080160006101000a81548173ffffffffffffffffffffffffffffffffffffffff021916908373ffffffffffffffffffffffffffffffffffffffff1602179055509050507f2a3315f405792491e3fd1ddd486f3ca4aa4f0e1499567b08e2bdeac7115cb3436002548583338787600060405161116497969594939291906146a2565b60405180910390a150505050565b60006001600083815260200190815260200160002090508060040160019054906101000a900460ff166111da576040517f08c379a00000000000000000000000000000000000000000000000000000000081526004016111d190614772565b60405180910390fd5b8060030154421115611221576040517f08c379a0000000000000000000000000000000000000000000000000000000008152600401611218906147de565b60405180910390fd5b80600101543411611267576040517f08c379a000000000000000000000000000000000000000000000000000000000815260040161125e9061484a565b60405180910390fd5b6000816001015411156112e4578060020160009054906101000a900473ffffffffffffffffffffffffffffffffffffffff1673ffffffffffffffffffffffffffffffffffffffff166108fc82600101549081150290604051600060405180830381858888f193505050501580156112e2573d6000803e3d6000fd5b505b338160020160006101000a81548173ffffffffffffffffffffffffffffffffffffffff021916908373ffffffffffffffffffffffffffffffffffffffff16021790555034816001018190555080600501339080600181540180825580915050600190039060005260206000200160009091909190916101000a81548173ffffffffffffffffffffffffffffffffffffffff021916908373ffffffffffffffffffffffffffffffffffffffff160217905550348160060160003373ffffffffffffffffffffffffffffffffffffffff1673ffffffffffffffffffffffffffffffffffffffff168152602001908152602001600020819055507ff13cb67d4c8841d2c893b242b7d61382d8e3bb53c5c58a8584106e74e8c4721b82333460405161140e9392919061486a565b60405180910390a15050565b600460003373ffffffffffffffffffffffffffffffffffffffff1673ffffffffffffffffffffffffffffffffffffffff16815260200190815260200160002060009054906101000a900460ff166114a6576040517f08c379a000000000000000000000000000000000000000000000000000000000815260040161149d90614350565b60405180910390fd5b600080600083815260200190815260200160002090508060060160149054906101000a900460ff1661150d576040517f08c379a000000000000000000000000000000000000000000000000000000000815260040161150490614913565b60405180910390fd5b60008311611550576040517f08c379a00000000000000000000000000000000000000000000000000000000081526004016115479061497f565b60405180910390fd5b8381600201908161156191906145d0565b5082816005018190555050505050565b60016020528060005260406000206000915090508060000154908060010154908060020160009054906101000a900473ffffffffffffffffffffffffffffffffffffffff16908060030154908060040160009054906101000a900460ff16908060040160019054906101000a900460ff16905086565b600060205280600052604060002060009150905080600001805461160a906140fa565b80601f0160208091040260200160405190810160405280929190818152602001828054611636906140fa565b80156116835780601f1061165857610100808354040283529160200191611683565b820191906000526020600020905b81548152906001019060200180831161166657829003601f168201915b505050505090806001018054611698906140fa565b80601f01602080910402602001604051908101604052809291908181526020018280546116c4906140fa565b80156117115780601f106116e657610100808354040283529160200191611711565b820191906000526020600020905b8154815290600101906020018083116116f457829003601f168201915b505050505090806002018054611726906140fa565b80601f0160208091040260200160405190810160405280929190818152602001828054611752906140fa565b801561179f5780601f106117745761010080835404028352916020019161179f565b820191906000526020600020905b81548152906001019060200180831161178257829003601f168201915b5050505050908060030180546117b4906140fa565b80601f01602080910402602001604051908101604052809291908181526020018280546117e0906140fa565b801561182d5780601f106118025761010080835404028352916020019161182d565b820191906000526020600020905b81548152906001019060200180831161181057829003601f168201915b5050505050908060040154908060050154908060060160009054906101000a900473ffffffffffffffffffffffffffffffffffffffff16908060060160149054906101000a900460ff16908060060160159054906101000a900460ff16908060070160009054906101000a900473ffffffffffffffffffffffffffffffffffffffff16908060080160009054906101000a900473ffffffffffffffffffffffffffffffffffffffff1690508b565b6060600080600190505b6002548111611990576001600082815260200190815260200160002060040160019054906101000a900460ff16801561193d575060008082815260200190815260200160002060060160149054906101000a900460ff165b8015611969575060008082815260200190815260200160002060060160159054906101000a900460ff16155b1561197d578180611979906143dc565b9250505b8080611988906143dc565b9150506118e5565b5060008167ffffffffffffffff8111156119ad576119ac6137da565b5b6040519080825280602002602001820160405280156119e657816020015b6119d36133f9565b8152602001906001900390816119cb5790505b509050600080600190505b6002548111611e80576001600082815260200190815260200160002060040160019054906101000a900460ff168015611a49575060008082815260200190815260200160002060060160149054906101000a900460ff165b8015611a75575060008082815260200190815260200160002060060160159054906101000a900460ff16155b15611e6d57604051806040016040528082815260200160008084815260200190815260200160002060405180610160016040529081600082018054611ab9906140fa565b80601f0160208091040260200160405190810160405280929190818152602001828054611ae5906140fa565b8015611b325780601f10611b0757610100808354040283529160200191611b32565b820191906000526020600020905b815481529060010190602001808311611b1557829003601f168201915b50505050508152602001600182018054611b4b906140fa565b80601f0160208091040260200160405190810160405280929190818152602001828054611b77906140fa565b8015611bc45780601f10611b9957610100808354040283529160200191611bc4565b820191906000526020600020905b815481529060010190602001808311611ba757829003601f168201915b50505050508152602001600282018054611bdd906140fa565b80601f0160208091040260200160405190810160405280929190818152602001828054611c09906140fa565b8015611c565780601f10611c2b57610100808354040283529160200191611c56565b820191906000526020600020905b815481529060010190602001808311611c3957829003601f168201915b50505050508152602001600382018054611c6f906140fa565b80601f0160208091040260200160405190810160405280929190818152602001828054611c9b906140fa565b8015611ce85780601f10611cbd57610100808354040283529160200191611ce8565b820191906000526020600020905b815481529060010190602001808311611ccb57829003601f168201915b5050505050815260200160048201548152602001600582015481526020016006820160009054906101000a900473ffffffffffffffffffffffffffffffffffffffff1673ffffffffffffffffffffffffffffffffffffffff1673ffffffffffffffffffffffffffffffffffffffff1681526020016006820160149054906101000a900460ff161515151581526020016006820160159054906101000a900460ff161515151581526020016007820160009054906101000a900473ffffffffffffffffffffffffffffffffffffffff1673ffffffffffffffffffffffffffffffffffffffff1673ffffffffffffffffffffffffffffffffffffffff1681526020016008820160009054906101000a900473ffffffffffffffffffffffffffffffffffffffff1673ffffffffffffffffffffffffffffffffffffffff1673ffffffffffffffffffffffffffffffffffffffff1681525050815250838381518110611e5357611e5261499f565b5b60200260200101819052508180611e69906143dc565b9250505b8080611e78906143dc565b9150506119f1565b5081935050505090565b6000806001600084815260200190815260200160002090508060040160019054906101000a900460ff16611ef3576040517f08c379a0000000000000000000000000000000000000000000000000000000008152600401611eea90614772565b60405180910390fd5b8060010154915050919050565b600360009054906101000a900473ffffffffffffffffffffffffffffffffffffffff1673ffffffffffffffffffffffffffffffffffffffff163373ffffffffffffffffffffffffffffffffffffffff1614611f90576040517f08c379a0000000000000000000000000000000000000000000000000000000008152600401611f8790614a1a565b60405180910390fd5b6000600460008373ffffffffffffffffffffffffffffffffffffffff1673ffffffffffffffffffffffffffffffffffffffff16815260200190815260200160002060006101000a81548160ff02191690831515021790555050565b60608060006001600085815260200190815260200160002090508060040160019054906101000a900460ff16612056576040517f08c379a000000000000000000000000000000000000000000000000000000000815260040161204d90614772565b60405180910390fd5b60008160050180549050905060008167ffffffffffffffff81111561207e5761207d6137da565b5b6040519080825280602002602001820160405280156120ac5781602001602082028036833780820191505090505b50905060008267ffffffffffffffff8111156120cb576120ca6137da565b5b6040519080825280602002602001820160405280156120f95781602001602082028036833780820191505090505b50905060005b838110156122235784600501818154811061211d5761211c61499f565b5b9060005260206000200160009054906101000a900473ffffffffffffffffffffffffffffffffffffffff1683828151811061215b5761215a61499f565b5b602002602001019073ffffffffffffffffffffffffffffffffffffffff16908173ffffffffffffffffffffffffffffffffffffffff16815250508460060160008483815181106121ae576121ad61499f565b5b602002602001015173ffffffffffffffffffffffffffffffffffffffff1673ffffffffffffffffffffffffffffffffffffffff168152602001908152602001600020548282815181106122045761220361499f565b5b602002602001018181525050808061221b906143dc565b9150506120ff565b5081819550955050505050915091565b600360009054906101000a900473ffffffffffffffffffffffffffffffffffffffff1673ffffffffffffffffffffffffffffffffffffffff163373ffffffffffffffffffffffffffffffffffffffff16146122c3576040517f08c379a00000000000000000000000000000000000000000000000000000000081526004016122ba90614a1a565b60405180910390fd5b6000811180156122d557506002548111155b612314576040517f08c379a000000000000000000000000000000000000000000000000000000000815260040161230b90614177565b60405180910390fd5b60008082815260200190815260200160002060060160159054906101000a900460ff1615612377576040517f08c379a000000000000000000000000000000000000000000000000000000000815260040161236e9061424f565b60405180910390fd5b600460008373ffffffffffffffffffffffffffffffffffffffff1673ffffffffffffffffffffffffffffffffffffffff16815260200190815260200160002060009054906101000a900460ff16612421576001600460008473ffffffffffffffffffffffffffffffffffffffff1673ffffffffffffffffffffffffffffffffffffffff16815260200190815260200160002060006101000a81548160ff0219169083151502179055505b8160008083815260200190815260200160002060080160006101000a81548173ffffffffffffffffffffffffffffffffffffffff021916908373ffffffffffffffffffffffffffffffffffffffff1602179055507f9968f4ac4c5af4696903bf7d978a40470e5ea17876a803ae0e83df70653c0e1781836040516124a69291906142db565b60405180910390a15050565b60025481565b803373ffffffffffffffffffffffffffffffffffffffff1660008083815260200190815260200160002060060160009054906101000a900473ffffffffffffffffffffffffffffffffffffffff1673ffffffffffffffffffffffffffffffffffffffff161461255c576040517f08c379a000000000000000000000000000000000000000000000000000000000815260040161255390614a86565b60405180910390fd5b60006001600084815260200190815260200160002090508060040160019054906101000a900460ff166125c4576040517f08c379a00000000000000000000000000000000000000000000000000000000081526004016125bb90614772565b60405180910390fd5b8060030154421161260a576040517f08c379a000000000000000000000000000000000000000000000000000000000815260040161260190614af2565b60405180910390fd5b8060040160009054906101000a900460ff161561265c576040517f08c379a000000000000000000000000000000000000000000000000000000000815260040161265390614b5e565b60405180910390fd5b60018160040160006101000a81548160ff021916908315150217905550600073ffffffffffffffffffffffffffffffffffffffff168160020160009054906101000a900473ffffffffffffffffffffffffffffffffffffffff1673ffffffffffffffffffffffffffffffffffffffff161461285f5760008084815260200190815260200160002060060160009054906101000a900473ffffffffffffffffffffffffffffffffffffffff1673ffffffffffffffffffffffffffffffffffffffff166108fc82600101549081150290604051600060405180830381858888f19350505050158015612750573d6000803e3d6000fd5b50600160008085815260200190815260200160002060060160156101000a81548160ff0219169083151502179055508060020160009054906101000a900473ffffffffffffffffffffffffffffffffffffffff1660008085815260200190815260200160002060070160006101000a81548173ffffffffffffffffffffffffffffffffffffffff021916908373ffffffffffffffffffffffffffffffffffffffff1602179055507fd2aa34a4fdbbc6dff6a3e56f46e0f3ae2a31d7785ff3487aa5c95c642acea501838260020160009054906101000a900473ffffffffffffffffffffffffffffffffffffffff1683600101546040516128529392919061486a565b60405180910390a161289c565b7fd2aa34a4fdbbc6dff6a3e56f46e0f3ae2a31d7785ff3487aa5c95c642acea5018360008060405161289393929190614bb9565b60405180910390a15b505050565b600360009054906101000a900473ffffffffffffffffffffffffffffffffffffffff1681565b6060600080600190505b6002548111612964578373ffffffffffffffffffffffffffffffffffffffff1660008083815260200190815260200160002060080160009054906101000a900473ffffffffffffffffffffffffffffffffffffffff1673ffffffffffffffffffffffffffffffffffffffff160361295157818061294d906143dc565b9250505b808061295c906143dc565b9150506128d1565b5060008167ffffffffffffffff811115612981576129806137da565b5b6040519080825280602002602001820160405280156129ba57816020015b6129a76133f9565b81526020019060019003908161299f5790505b509050600080600190505b6002548111612e3c578573ffffffffffffffffffffffffffffffffffffffff1660008083815260200190815260200160002060080160009054906101000a900473ffffffffffffffffffffffffffffffffffffffff1673ffffffffffffffffffffffffffffffffffffffff1603612e2957604051806040016040528082815260200160008084815260200190815260200160002060405180610160016040529081600082018054612a75906140fa565b80601f0160208091040260200160405190810160405280929190818152602001828054612aa1906140fa565b8015612aee5780601f10612ac357610100808354040283529160200191612aee565b820191906000526020600020905b815481529060010190602001808311612ad157829003601f168201915b50505050508152602001600182018054612b07906140fa565b80601f0160208091040260200160405190810160405280929190818152602001828054612b33906140fa565b8015612b805780601f10612b5557610100808354040283529160200191612b80565b820191906000526020600020905b815481529060010190602001808311612b6357829003601f168201915b50505050508152602001600282018054612b99906140fa565b80601f0160208091040260200160405190810160405280929190818152602001828054612bc5906140fa565b8015612c125780601f10612be757610100808354040283529160200191612c12565b820191906000526020600020905b815481529060010190602001808311612bf557829003601f168201915b50505050508152602001600382018054612c2b906140fa565b80601f0160208091040260200160405190810160405280929190818152602001828054612c57906140fa565b8015612ca45780601f10612c7957610100808354040283529160200191612ca4565b820191906000526020600020905b815481529060010190602001808311612c8757829003601f168201915b5050505050815260200160048201548152602001600582015481526020016006820160009054906101000a900473ffffffffffffffffffffffffffffffffffffffff1673ffffffffffffffffffffffffffffffffffffffff1673ffffffffffffffffffffffffffffffffffffffff1681526020016006820160149054906101000a900460ff161515151581526020016006820160159054906101000a900460ff161515151581526020016007820160009054906101000a900473ffffffffffffffffffffffffffffffffffffffff1673ffffffffffffffffffffffffffffffffffffffff1673ffffffffffffffffffffffffffffffffffffffff1681526020016008820160009054906101000a900473ffffffffffffffffffffffffffffffffffffffff1673ffffffffffffffffffffffffffffffffffffffff1673ffffffffffffffffffffffffffffffffffffffff1681525050815250838381518110612e0f57612e0e61499f565b5b60200260200101819052508180612e25906143dc565b9250505b8080612e34906143dc565b9150506129c5565b50819350505050919050565b6060600080600190505b6002548111612efe5760008082815260200190815260200160002060060160149054906101000a900460ff168015612eaa575060008082815260200190815260200160002060060160159054906101000a900460ff16155b8015612ed757506001600082815260200190815260200160002060040160019054906101000a900460ff16155b15612eeb578180612ee7906143dc565b9250505b8080612ef6906143dc565b915050612e52565b5060008167ffffffffffffffff811115612f1b57612f1a6137da565b5b604051908082528060200260200182016040528015612f5457816020015b612f416133f9565b815260200190600190039081612f395790505b509050600080600190505b60025481116133ef5760008082815260200190815260200160002060060160149054906101000a900460ff168015612fb7575060008082815260200190815260200160002060060160159054906101000a900460ff16155b8015612fe457506001600082815260200190815260200160002060040160019054906101000a900460ff16155b156133dc57604051806040016040528082815260200160008084815260200190815260200160002060405180610160016040529081600082018054613028906140fa565b80601f0160208091040260200160405190810160405280929190818152602001828054613054906140fa565b80156130a15780601f10613076576101008083540402835291602001916130a1565b820191906000526020600020905b81548152906001019060200180831161308457829003601f168201915b505050505081526020016001820180546130ba906140fa565b80601f01602080910402602001604051908101604052809291908181526020018280546130e6906140fa565b80156131335780601f1061310857610100808354040283529160200191613133565b820191906000526020600020905b81548152906001019060200180831161311657829003601f168201915b5050505050815260200160028201805461314c906140fa565b80601f0160208091040260200160405190810160405280929190818152602001828054613178906140fa565b80156131c55780601f1061319a576101008083540402835291602001916131c5565b820191906000526020600020905b8154815290600101906020018083116131a857829003601f168201915b505050505081526020016003820180546131de906140fa565b80601f016020809104026020016040519081016040528092919081815260200182805461320a906140fa565b80156132575780601f1061322c57610100808354040283529160200191613257565b820191906000526020600020905b81548152906001019060200180831161323a57829003601f168201915b5050505050815260200160048201548152602001600582015481526020016006820160009054906101000a900473ffffffffffffffffffffffffffffffffffffffff1673ffffffffffffffffffffffffffffffffffffffff1673ffffffffffffffffffffffffffffffffffffffff1681526020016006820160149054906101000a900460ff161515151581526020016006820160159054906101000a900460ff161515151581526020016007820160009054906101000a900473ffffffffffffffffffffffffffffffffffffffff1673ffffffffffffffffffffffffffffffffffffffff1673ffffffffffffffffffffffffffffffffffffffff1681526020016008820160009054906101000a900473ffffffffffffffffffffffffffffffffffffffff1673ffffffffffffffffffffffffffffffffffffffff1673ffffffffffffffffffffffffffffffffffffffff16815250508152508383815181106133c2576133c161499f565b5b602002602001018190525081806133d8906143dc565b9250505b80806133e7906143dc565b915050612f5f565b5081935050505090565b604051806040016040528060008152602001613413613419565b81525090565b604051806101600160405280606081526020016060815260200160608152602001606081526020016000815260200160008152602001600073ffffffffffffffffffffffffffffffffffffffff168152602001600015158152602001600015158152602001600073ffffffffffffffffffffffffffffffffffffffff168152602001600073ffffffffffffffffffffffffffffffffffffffff1681525090565b6000604051905090565b600080fd5b600080fd5b6000819050919050565b6134e0816134cd565b81146134eb57600080fd5b50565b6000813590506134fd816134d7565b92915050565b600060208284031215613519576135186134c3565b5b6000613527848285016134ee565b91505092915050565b600073ffffffffffffffffffffffffffffffffffffffff82169050919050565b600061355b82613530565b9050919050565b61356b81613550565b811461357657600080fd5b50565b60008135905061358881613562565b92915050565b600080604083850312156135a5576135a46134c3565b5b60006135b385828601613579565b92505060206135c4858286016134ee565b9150509250929050565b6135d7816134cd565b82525050565b60006020820190506135f260008301846135ce565b92915050565b600081519050919050565b600082825260208201905092915050565b60005b83811015613632578082015181840152602081019050613617565b60008484015250505050565b6000601f19601f8301169050919050565b600061365a826135f8565b6136648185613603565b9350613674818560208601613614565b61367d8161363e565b840191505092915050565b61369181613550565b82525050565b60008115159050919050565b6136ac81613697565b82525050565b6000610180820190506136c8600083018f6135ce565b81810360208301526136da818e61364f565b905081810360408301526136ee818d61364f565b90508181036060830152613702818c61364f565b90508181036080830152613716818b61364f565b905061372560a083018a6135ce565b61373260c08301896135ce565b61373f60e0830188613688565b61374d6101008301876136a3565b61375b6101208301866136a3565b613769610140830185613688565b613777610160830184613688565b9d9c50505050505050505050505050565b60006020828403121561379e5761379d6134c3565b5b60006137ac84828501613579565b91505092915050565b60006020820190506137ca60008301846136a3565b92915050565b600080fd5b600080fd5b7f4e487b7100000000000000000000000000000000000000000000000000000000600052604160045260246000fd5b6138128261363e565b810181811067ffffffffffffffff82111715613831576138306137da565b5b80604052505050565b60006138446134b9565b90506138508282613809565b919050565b600067ffffffffffffffff8211156138705761386f6137da565b5b6138798261363e565b9050602081019050919050565b82818337600083830152505050565b60006138a86138a384613855565b61383a565b9050828152602081018484840111156138c4576138c36137d5565b5b6138cf848285613886565b509392505050565b600082601f8301126138ec576138eb6137d0565b5b81356138fc848260208601613895565b91505092915050565b6000806000806080858703121561391f5761391e6134c3565b5b600085013567ffffffffffffffff81111561393d5761393c6134c8565b5b613949878288016138d7565b945050602085013567ffffffffffffffff81111561396a576139696134c8565b5b613976878288016138d7565b935050604085013567ffffffffffffffff811115613997576139966134c8565b5b6139a3878288016138d7565b92505060606139b4878288016134ee565b91505092959194509250565b6000806000606084860312156139d9576139d86134c3565b5b600084013567ffffffffffffffff8111156139f7576139f66134c8565b5b613a03868287016138d7565b9350506020613a14868287016134ee565b9250506040613a25868287016134ee565b9150509250925092565b600060c082019050613a4460008301896135ce565b613a5160208301886135ce565b613a5e6040830187613688565b613a6b60608301866135ce565b613a7860808301856136a3565b613a8560a08301846136a3565b979650505050505050565b6000613a9b82613530565b9050919050565b613aab81613a90565b82525050565b6000610160820190508181036000830152613acc818e61364f565b90508181036020830152613ae0818d61364f565b90508181036040830152613af4818c61364f565b90508181036060830152613b08818b61364f565b9050613b17608083018a6135ce565b613b2460a08301896135ce565b613b3160c0830188613aa2565b613b3e60e08301876136a3565b613b4c6101008301866136a3565b613b5a610120830185613688565b613b68610140830184613688565b9c9b505050505050505050505050565b600081519050919050565b600082825260208201905092915050565b6000819050602082019050919050565b613bad816134cd565b82525050565b600082825260208201905092915050565b6000613bcf826135f8565b613bd98185613bb3565b9350613be9818560208601613614565b613bf28161363e565b840191505092915050565b613c0681613a90565b82525050565b613c1581613697565b82525050565b613c2481613550565b82525050565b6000610160830160008301518482036000860152613c488282613bc4565b91505060208301518482036020860152613c628282613bc4565b91505060408301518482036040860152613c7c8282613bc4565b91505060608301518482036060860152613c968282613bc4565b9150506080830151613cab6080860182613ba4565b5060a0830151613cbe60a0860182613ba4565b5060c0830151613cd160c0860182613bfd565b5060e0830151613ce460e0860182613c0c565b50610100830151613cf9610100860182613c0c565b50610120830151613d0e610120860182613c1b565b50610140830151613d23610140860182613c1b565b508091505092915050565b6000604083016000830151613d466000860182613ba4565b5060208301518482036020860152613d5e8282613c2a565b9150508091505092915050565b6000613d778383613d2e565b905092915050565b6000602082019050919050565b6000613d9782613b78565b613da18185613b83565b935083602082028501613db385613b94565b8060005b85811015613def5784840389528151613dd08582613d6b565b9450613ddb83613d7f565b925060208a01995050600181019050613db7565b50829750879550505050505092915050565b60006020820190508181036000830152613e1b8184613d8c565b905092915050565b600081519050919050565b600082825260208201905092915050565b6000819050602082019050919050565b6000613e5b8383613c1b565b60208301905092915050565b6000602082019050919050565b6000613e7f82613e23565b613e898185613e2e565b9350613e9483613e3f565b8060005b83811015613ec5578151613eac8882613e4f565b9750613eb783613e67565b925050600181019050613e98565b5085935050505092915050565b600081519050919050565b600082825260208201905092915050565b6000819050602082019050919050565b6000613f0a8383613ba4565b60208301905092915050565b6000602082019050919050565b6000613f2e82613ed2565b613f388185613edd565b9350613f4383613eee565b8060005b83811015613f74578151613f5b8882613efe565b9750613f6683613f16565b925050600181019050613f47565b5085935050505092915050565b60006040820190508181036000830152613f9b8185613e74565b90508181036020830152613faf8184613f23565b90509392505050565b6000602082019050613fcd6000830184613688565b92915050565b7f43616e6e6f742061756374696f6e20736f6c642063726f700000000000000000600082015250565b6000614009601883613603565b915061401482613fd3565b602082019050919050565b6000602082019050818103600083015261403881613ffc565b9050919050565b7f4e487b7100000000000000000000000000000000000000000000000000000000600052601160045260246000fd5b6000614079826134cd565b9150614084836134cd565b925082820190508082111561409c5761409b61403f565b5b92915050565b60006040820190506140b760008301856135ce565b6140c460208301846135ce565b9392505050565b7f4e487b7100000000000000000000000000000000000000000000000000000000600052602260045260246000fd5b6000600282049050600182168061411257607f821691505b602082108103614125576141246140cb565b5b50919050565b7f496e76616c69642043726f702049440000000000000000000000000000000000600082015250565b6000614161600f83613603565b915061416c8261412b565b602082019050919050565b6000602082019050818103600083015261419081614154565b9050919050565b7f43726f70206d7573742062652076657269666965640000000000000000000000600082015250565b60006141cd601583613603565b91506141d882614197565b602082019050919050565b600060208201905081810360008301526141fc816141c0565b9050919050565b7f43726f7020616c726561647920736f6c64000000000000000000000000000000600082015250565b6000614239601183613603565b915061424482614203565b602082019050919050565b600060208201905081810360008301526142688161422c565b9050919050565b7f496e636f72726563742070726963650000000000000000000000000000000000600082015250565b60006142a5600f83613603565b91506142b08261426f565b602082019050919050565b600060208201905081810360008301526142d481614298565b9050919050565b60006040820190506142f060008301856135ce565b6142fd6020830184613688565b9392505050565b7f4f6e6c79206c6f63616c206167656e74732063616e2063616c6c207468697300600082015250565b600061433a601f83613603565b915061434582614304565b602082019050919050565b600060208201905081810360008301526143698161432d565b9050919050565b7f43726f7020616c72656164792076657269666965640000000000000000000000600082015250565b60006143a6601583613603565b91506143b182614370565b602082019050919050565b600060208201905081810360008301526143d581614399565b9050919050565b60006143e7826134cd565b91507fffffffffffffffffffffffffffffffffffffffffffffffffffffffffffffffff82036144195761441861403f565b5b600182019050919050565b60008190508160005260206000209050919050565b60006020601f8301049050919050565b600082821b905092915050565b6000600883026144867fffffffffffffffffffffffffffffffffffffffffffffffffffffffffffffffff82614449565b6144908683614449565b95508019841693508086168417925050509392505050565b6000819050919050565b60006144cd6144c86144c3846134cd565b6144a8565b6134cd565b9050919050565b6000819050919050565b6144e7836144b2565b6144fb6144f3826144d4565b848454614456565b825550505050565b600090565b614510614503565b61451b8184846144de565b505050565b5b8181101561453f57614534600082614508565b600181019050614521565b5050565b601f8211156145845761455581614424565b61455e84614439565b8101602085101561456d578190505b61458161457985614439565b830182614520565b50505b505050565b600082821c905092915050565b60006145a760001984600802614589565b1980831691505092915050565b60006145c08383614596565b9150826002028217905092915050565b6145d9826135f8565b67ffffffffffffffff8111156145f2576145f16137da565b5b6145fc82546140fa565b614607828285614543565b600060209050601f83116001811461463a5760008415614628578287015190505b61463285826145b4565b86555061469a565b601f19841661464886614424565b60005b828110156146705784890151825560018201915060208501945060208101905061464b565b8683101561468d5784890151614689601f891682614596565b8355505b6001600288020188555050505b505050505050565b600060e0820190506146b7600083018a6135ce565b81810360208301526146c9818961364f565b90506146d860408301886135ce565b6146e56060830187613688565b81810360808301526146f7818661364f565b905081810360a083015261470b818561364f565b905061471a60c08301846136a3565b98975050505050505050565b7f546869732063726f70206973206e6f7420757020666f722061756374696f6e00600082015250565b600061475c601f83613603565b915061476782614726565b602082019050919050565b6000602082019050818103600083015261478b8161474f565b9050919050565b7f41756374696f6e2068617320656e646564000000000000000000000000000000600082015250565b60006147c8601183613603565b91506147d382614792565b602082019050919050565b600060208201905081810360008301526147f7816147bb565b9050919050565b7f42696420697320746f6f206c6f77000000000000000000000000000000000000600082015250565b6000614834600e83613603565b915061483f826147fe565b602082019050919050565b6000602082019050818103600083015261486381614827565b9050919050565b600060608201905061487f60008301866135ce565b61488c6020830185613688565b61489960408301846135ce565b949350505050565b7f43726f70206d757374206265207665726966696564206265666f72652073657460008201527f74696e67207175616c6974790000000000000000000000000000000000000000602082015250565b60006148fd602c83613603565b9150614908826148a1565b604082019050919050565b6000602082019050818103600083015261492c816148f0565b9050919050565b7f5072696365206d7573742062652067726561746572207468616e207a65726f00600082015250565b6000614969601f83613603565b915061497482614933565b602082019050919050565b600060208201905081810360008301526149988161495c565b9050919050565b7f4e487b7100000000000000000000000000000000000000000000000000000000600052603260045260246000fd5b7f4f6e6c792061646d696e2063616e2063616c6c20746869730000000000000000600082015250565b6000614a04601883613603565b9150614a0f826149ce565b602082019050919050565b60006020820190508181036000830152614a33816149f7565b9050919050565b7f4f6e6c792073656c6c65722063616e2063616c6c207468697300000000000000600082015250565b6000614a70601983613603565b9150614a7b82614a3a565b602082019050919050565b60006020820190508181036000830152614a9f81614a63565b9050919050565b7f41756374696f6e206e6f742079657420656e6465640000000000000000000000600082015250565b6000614adc601583613603565b9150614ae782614aa6565b602082019050919050565b60006020820190508181036000830152614b0b81614acf565b9050919050565b7f41756374696f6e20616c72656164792066696e616c697a656400000000000000600082015250565b6000614b48601983613603565b9150614b5382614b12565b602082019050919050565b60006020820190508181036000830152614b7781614b3b565b9050919050565b6000819050919050565b6000614ba3614b9e614b9984614b7e565b6144a8565b6134cd565b9050919050565b614bb381614b88565b82525050565b6000606082019050614bce60008301866135ce565b614bdb6020830185613688565b614be86040830184614baa565b94935050505056fea2646970667358221220ac27b047a2f51b842425d64d528c412d469e731e312e94cf457399c0bc6311ce64736f6c63430008140033",
  "linkReferences": {},
  "deployedLinkReferences": {}
}